:1000000080110020E55500004D5600004D560000BF
:100010004D5600004D5600004D56000000000000F7
:100020000000000000000000000000004D5600002D
:100030004D560000000000004D5600004D560000D7
:100040004D5600004D560000AD1300004D56000007
:100050004D5600004D5600004D5600004D56000014
:100060004D5600004D5600004D5600004D56000004
:100070004D5600004D5600004D5600004D560000F4
:100080004D5600004D5600004D5600004D560000E4
:100090004D5600004D5600004D5600004D560000D4
:1000A0004D5600004D5600004D5600004D560000C4
:1000B0004D5600004D5600004D5600004D560000B4
:1000C0004D5600004D5600004D5600004D560000A4
:1000D0004D5600004D5600004D5600004D56000094
:1000E0004D5600004D560000000000004D56000027
:1000F0004D5600004D5600004D5600004D56000074
:100100004D5600004D5600004D5600004D56000063
:1001100000000000000000004D5600004D56000099
:100120004D5600004D5600004D5600004D56000043
:100130004D5600004D5600004D5600004D56000033
:1001400000000000000000000000000000000000AF
:100150004D5600004D5600004D5600004D56000013
:10016000000000000000000000000000000000008F
:10017000000000000000000000000000000000007F
:10018000000000000000000000000000000000006F
:10019000000000000000000000000000000000005F
:1001A000000000000000000000000000000000004F
:1001B0004D5600004D5600004D5600004D560000B3
:1001C0004D5600004D5600004D5600004D560000A3
:1001D0004D5600004D5600004D5600004D56000093
:1001E0004D5600004D5600004D5600004D56000083
:1001F0004D5600004D5600004D5600004D56000073
:100200004D5600004D5600004D5600000000000005
:100210004D5600004D5600004D5600004D56000052
:100220004D5600004D5600004D5600004D56000042
:100230004D5600004D5600004D5600004D56000032
:100240004D5600004D5600004D5600004D56000022
:100250004D5600004D5600004D5600004D56000012
:100260004D5600004D5600004D56000080B582B03E
:1002700000AF7860054B1B687A6802FB03F31846F1
:1002800001F062FB0837BD4680BD00BFD0040020EE
:1002900080B582B000AF7860054B1B687A6802FBBE
:1002A00003F3184601F050FB0837BD4680BD00BF80
:1002B000CC04002080B500AF00F00AF800F02AF866
:1002C00000F05AF800F068F800F07EF880BD00BF3A
:1002D00080B500AF0A4801F03BFB01F033FC024659
:1002E000084BA3FB02239B09074A1360064B1B68BC
:1002F000064AA2FB03239B09054A136080BD00BF89
:1003000040054002F1197605D0040020D34D62105B
:10031000CC04002080B500AF134801F0EFFA0A20AA
:1003200001F012FB1148E02101F050FF0F4820219D
:1003300001220A2301F0B0FD0C48402101220A23CA
:1003400001F0AAFD0948802101220A2301F0A4FD41
:10035000074801F0D3FA0A2001F0F6FA0548072110
:1003600001F04AFF80BD00BF020800F000600040BD
:10037000040800F00040024080B500AF054880212D
:10038000042201F01DFD0348802101F0E3FE01F08D
:10039000CDFF80BD0060004080B500AF094801F08E
:1003A000ADFA0A2001F0D0FA4FF04020402101F0D0
:1003B0000DFF4FF04020402101220A2301F06CFD87
:1003C00080BD00BF000800F080B582B002AF2848B1
:1003D00001F094FA0A2001F0B7FA264801F08EFAEB
:1003E0000A2001F0B1FA244B244A1A60244A244B13
:1003F0001B6843F001031360224A224B1B6843F041
:1004000001031360204A204B1B6843F00103136073
:10041000194B00221A600A2001F096FA1B480021AD
:1004200002F08EF81A4801F03FFF1A4801F03CFF35
:10043000194801F039FF1948072101F01FFF4FF457
:100440007A7300931023019310481549002200236A
:1004500001F0C2FF1148082101F0CEFE0F4808212B
:10046000082201F09DFE094801F0FCFFBD4680BD59
:10047000050800F0011C00F0205502404B434F4C92
:1004800024550240205402401C5502400090004078
:1004900002080500020005000204050000500240A9
:1004A000801A060080B584B000AF78601E4808212D
:1004B000002201F075FE1D48AA2102F00FF807F195
:1004C0000E031A48194602F023F8A020FFF7E0FEB9
:1004D00015480821082201F063FE2820FFF7C6FE18
:1004E00011480821002201F05BFE1048002101F0B4
:1004F000F5FF0E48796802F00BF80C48002101F076
:10050000EDFF7B6802330948194602F001F84FF409
:10051000A570FFF7BDFE04480821082201F040FE47
:100520001037BD4680BD00BF005002400090004023
:1005300080B584B000AF78607B681B88C3F30D037F
:10054000184606F009F802460B46C7E90223D7E928
:1005500002014FF00002104B06F064F802460B4611
:10056000C7E90223D7E9020109A3D3E9002306F072
:1005700083F902460B46C7E90223D7E9022343EC7D
:10058000172BB0EE470AF0EE670A1037BD4680BD64
:100590000000000000FFCF4000005940AFF3008092
:1005A00080B584B000AF78607B6802331B889B08FD
:1005B0009BB2184605F0D0FF02460B46C7E902235E
:1005C000D7E9020115A3D3E9002306F02BF8024670
:1005D0000B46C7E90223D7E9020112A3D3E900239E
:1005E00006F04AF902460B46C7E90223D7E90201A1
:1005F0004FF00002084B05F061FE02460B46C7E9CA
:100600000223D7E9022343EC172BB0EE470AF0EEA2
:10061000670A1037BD4680BD00004440000000005E
:1006200000A064400000000000FFCF40AFF3008056
:1006300080B582B000AF4E484B21002200F0CAFACC
:100640004B48002100F0FEFA4948032100F0EAFA85
:1006500000BF474800F0D2FA034683F00103DBB243
:10066000002BF6D100BF424800F0C8FA0346002B29
:10067000F9D13F484B21012200F0ACFA3C480B2154
:1006800000F0D0FA00BF3A4800F0B8FA034683F011
:100690000103DBB2002BF6D100BF354800F0AEFA03
:1006A0000346002BF9D1324800F0DCFA03461B0266
:1006B000304A13602E48052100F0B4FA00BF2C48E0
:1006C00000F09CFA034683F00103DBB2002BF6D165
:1006D00000BF274800F092FA0346002BF9D12448C6
:1006E00000F0C0FA0246244B1A6021484B21002238
:1006F00000F070FA1E48012100F0A4FA1C48032102
:1007000000F090FA00BF1A4800F078FA034683F030
:100710000103DBB2002BF6D1164B1A68164B1B688F
:100720001344DB08154A1360144B1B6803F4805311
:10073000134A1360114B1B68184605F0FDFE024674
:100740000B46104619464FF000020E4B05F06AFFAB
:1007500002460B461046194606F0FEF903467B603A
:100760007B6807EE903AB0EE670A0837BD4680BD59
:1007700000300240380400203C04002040040020E7
:10078000440400200000B03F2DE9B04384B000AF26
:10079000D3482921002200F01DFAD148802100F021
:1007A00051FACF48032100F04DFACD48032100F063
:1007B00039FA00BFCA4800F021FA034683F001036A
:1007C000DBB2002BF6D100BFC54800F017FA034694
:1007D000002BF9D14FF4C870FFF75AFD29208C2166
:1007E00000F078FA03461A46BE4B1A6029208D2184
:1007F00000F070FA03461A46BB4B1A60BA4B1B68EE
:100800001A02B84B1B6813447B6029208E2100F02C
:1008100061FA03461A46B34B1A6029208F2100F073
:1008200059FA03461A46B04B1A60AF4B1B681A02BE
:10083000AC4B1B6813443B60A9482921002200F0FF
:10084000C9F9A748802100F0FDF9A548002100F072
:10085000F9F9A348032100F0E5F900BFA04800F032
:10086000CDF9034683F00103DBB2002BF6D100BFC4
:100870009B4800F0C3F90346002BF9D13A687B6826
:10088000B2FBF3F3184605F057FE02460B4610463E
:1008900019464FF00002954B06F040F90346002B35
:1008A00043D0786805F048FE02460B4610461946CC
:1008B00075A3D3E9002305F0B5FE02460B461446A6
:1008C0001D46386805F038FE02460B4610461946AC
:1008D0006FA3D3E9002305F0A5FE02460B46904620
:1008E00099463A687B68B2FBF3F307EE903AF8EE6C
:1008F000677AB0EE670ADFED7E0A04F0B3FE10EE11
:10090000103A184605F03AFE02460B464046494664
:1009100005F088FE02460B462046294605F0CEFC2F
:1009200002460B46C7E90223EAE03A687B68B2FB5D
:10093000F3F3184605F000FE02460B461046194632
:1009400055A3D3E9002306F0E9F80346002B26D08F
:10095000786805F0F1FD02460B461046194650A393
:10096000D3E9002305F05EFE02460B4614461D4601
:10097000386805F0E1FD02460B46104619464AA3C9
:10098000D3E9002305F04EFE02460B4620462946D9
:1009900005F094FC02460B46C7E90223B0E03A6832
:1009A0007B68B2FBF3F3184605F0C6FD02460B4622
:1009B000104619463EA3D3E9002306F0AFF80346DC
:1009C000002B26D0786805F0B7FD02460B4610468E
:1009D000194639A3D3E9002305F024FE02460B464D
:1009E00014461D46386805F0A7FD02460B46104622
:1009F000194633A3D3E9002305F014FE02460B4643
:100A00002046294605F05AFC02460B46C7E9022358
:100A100076E03A687B68B2FBF3F3184605F08CFD8C
:100A200002460B461046194627A3D3E9002306F0D9
:100A300075F80346002B5DD0786805F07DFD024611
:100A40000B461046194622A3D3E9002305F0EAFD20
:100A500002460B4614461D46386805F06DFD0246F9
:100A60000B46104619461CA3D3E9002305F0DAFD16
:100A700002460B462046294605F020FC02460B465E
:100A8000C7E902233CE000BFC58F31772D219F3F8E
:100A90005839B4C876BEAF3F85EB51B81E85E33FE9
:100AA000C7BAB88D06F0963F5839B4C876BE9F3F96
:100AB0009A9999999999E93F2D431CEBE2368A3F1F
:100AC0004BC8073D9B558F3FCDCCCCCCCCCCF43F15
:100AD000B2632310AFEB573FD2FBC6D79E59523FAC
:100AE00000300240480400204C0400200000E03F99
:100AF0003333B33F4FF000024FF00003C7E9022346
:100B0000D7E9022343EC172BB0EE470AF0EE670A51
:100B10001037BD46BDE8B08380B586B000AFF86041
:100B2000B9601346FB71F86800F042F8FB79002BBE
:100B300002D01B4B7B6101E01A4B7B617A69134643
:100B40009B0013449B001A46BB681344591E7A69E4
:100B500013469B0013449B00B1FBF3F3013B3B6145
:100B6000FB680C331A463B691360FB6803F57C6332
:100B70001B6803F00103002B0FD0BA680A4B134423
:100B80000A4AA2FB0323DB0D013B3B61FB680C33EC
:100B90001A463B6943F0800313601837BD4680BD99
:100BA000801A0600A08601007F4737017DD0446986
:100BB00080B483B000AF78607B6820331A467B68CE
:100BC00020331B6843F0100313600C37BD465DF8FB
:100BD000047B704780B483B000AF78600B46FB7035
:100BE0001346BB707B68FA785100BA780A431A60E2
:100BF0000C37BD465DF8047B704700BF80B483B0FE
:100C000000AF78607B6804331B6803F00103002B9E
:100C100001D0012300E0002318460C37BD465DF8E3
:100C2000047B704780B483B000AF786039607B6824
:100C300004331A463B6813600C37BD465DF8047BED
:100C4000704700BF80B483B000AF78600B46FB7084
:100C50007B6808331A46FB7813600C37BD465DF895
:100C6000047B704780B483B000AF78607B68083342
:100C70001B6818460C37BD465DF8047B704700BF03
:100C800080B500AF0E4800F039FE0E4800F036FE89
:100C90004FF0031001F008FB0B4801F005FB0B4877
:100CA000012101F0D5FA0948022101F0BBFA00F058
:100CB00049FF0346064819460022FFF72DFF80BD75
:100CC000032000F0030800F003040300007000405C
:100CD0000030024080B582B000AF78600B46FB70F8
:100CE0007B68DBB21B4819460022FFF773FFFB78D5
:100CF00018481946FFF7A6FF16480321FFF792FF91
:100D00004FF4FA7000F020FE00BF1248FFF776FFA4
:100D10000346002BF9D17B68DBB20E48194601224D
:100D2000FFF758FF0B480721FFF77CFF4FF4FA70DD
:100D300000F00AFE00BF0748FFF760FF0346002BE4
:100D4000F9D10448FFF78EFF034618460837BD4621
:100D500080BD00BF0030024080B483B000AF0346C6
:100D6000FB71FB791B09DBB21A46920013445B004E
:100D7000DAB2FB7903F00F03DBB21344DBB218469F
:100D80000C37BD465DF8047B704700BF80B584B06A
:100D900000AF0346FB71FB7968201946FFF79AFF05
:100DA0000346FB73FB7B1846FFF7D6FF0346184646
:100DB0001037BD4680BD00BF80B483B000AF7860FF
:100DC0007B68DBB23033DBB218460C37BD465DF8CA
:100DD000047B704780B489B000AFF860B9607A6076
:100DE0007B68012B02DD7B68242B04DDBB680022BD
:100DF0001A70BB683BE0BB68FB61BB68BB61FB680A
:100E00007B61FA687B6892FBF3F3FB60FB695A1C19
:100E1000FA61FA68796801FB02F279698A1A233269
:100E200016498A5C1A70FB68002BE8D17B69002B9D
:100E300004DAFB695A1CFA612D221A70FB695A1EEA
:100E4000FA6100221A700DE0FB691B78FB74FB69E4
:100E50005A1EFA61BA6912781A70BB695A1CBA61D3
:100E6000FA7C1A70BA69FB699A42EDD3BB681846DE
:100E70002437BD465DF8047B704700BFFC6C000062
:100E800080B588B000AFF86087ED020A0B46FB71B1
:100E90000023FB77D7ED027AFDEEE77A17EE903A62
:100EA000BB61B869F9680A22FFF794FFD7ED027AAF
:100EB000F5EEC07AF1EE10FA08D5D7ED027AF1EE30
:100EC000677AC7ED027ABB695B42BB61F86805F0DF
:100ED00099FE0346FB75FB7DFB77FB7F5A1CFA7777
:100EE0001A46FB6813442E221A7027E0BB6907EEEE
:100EF000903AF8EEE77A97ED027A77EE677AC7EDE7
:100F0000027AD7ED027AB2EE047A67EE877AC7EDFD
:100F1000027AD7ED027AFDEEE77A17EE903ABB61DE
:100F2000B86939690A22FFF755FFFB7F5A1CFA7727
:100F30001A46FB6813443A6912781A70FA7FF979F5
:100F4000FB7D0B4401339A42D0DB2037BD4680BD88
:100F500080B500AFFFF7AEF9122001F0F3F9FFF70B
:100F60008FFE0020FFF712FF03461A464A4B1A7005
:100F70000120FFF70BFF03461A46484B1A70022068
:100F8000FFF704FF03461A46454B1A700420FFF78B
:100F9000FDFE03461A46434B1A700520FFF7F6FE86
:100FA00003461A46404B1A700620FFF7EFFE034631
:100FB0001A463E4B1A703D4B1B783D4AA2FB032359
:100FC000DB08DBB21846FFF7F7FE03461A46394B3B
:100FD0001A70364B1A78364BA3FB0213D9080B460E
:100FE0009B000B445B00D31ADBB21846FFF7E4FE0C
:100FF00003461A462F4B5A702E4B2D229A702A4BBD
:101000001B782B4AA2FB0323DB08DBB21846FFF751
:10101000D3FE03461A46274BDA70234B1A78244B2B
:10102000A3FB0213D9080B469B000B445B00D31AA9
:10103000DBB21846FFF7C0FE03461A461D4B1A7175
:101040001C4B2D225A71174B1B78194AA2FB032304
:10105000DB08DBB21846FFF7AFFE03461A46154B16
:101060009A71104B1A78124BA3FB0213D9080B4646
:101070009B000B445B00D31ADBB21846FFF79CFEC3
:1010800003461A460B4BDA710A4B00221A720A4BBE
:1010900000221A601FE000BF520700205007002006
:1010A0004807002058070020300700205107002083
:1010B000CDCCCCCC6C04002054040020A44B1B6885
:1010C000A34A1268A349895CA34AD154A04B1B6868
:1010D00001339F4A13609E4B1B68092BEEDD9F4B2B
:1010E0001B789F4AA2FB0323DB08DBB21846FFF7FD
:1010F00063FE03461A469B4B1A70984B1A78984B1E
:10110000A3FB0213D9080B469B000B445B00D31AC8
:10111000DBB21846FFF750FE03461A46914B5A7051
:10112000904B3A229A70904B1B788D4AA2FB032376
:10113000DB08DBB21846FFF73FFE03461A46894B31
:10114000DA70894B1A78864BA3FB0213D9080B4639
:101150009B000B445B00D31ADBB21846FFF72CFE52
:1011600003461A467F4B1A717E4B3A225A717F4BC7
:101170001B787B4AA2FB0323DB08DBB21846FFF790
:101180001BFE03461A46774B9A71784B1A78744BBC
:10119000A3FB0213D9080B469B000B445B00D31A38
:1011A000DBB21846FFF708FE03461A466D4BDA71AC
:1011B0006C4B00221A726B4B1A786D4B1A70694B8C
:1011C0005A786B4B5A706A4B2D229A70654BDA78BD
:1011D000674BDA70634B1A79654B1A71644B0022C6
:1011E0005A710020634902F0F7FD0346002B40F0DE
:1011F000AE80594803F078FB574803F09DF95C48EE
:1012000003F072FB5A4803F097F95B485B491222DE
:1012100002F00CFE0346002B40F0968056485849D9
:101220000522584B02F042FF03461A46564B1A70ED
:10123000514856490122534B02F038FF03461A46E3
:10124000514B1A704C48524904224E4B02F02EFF6B
:1012500003461A464C4B1A7047484C490122494BE9
:1012600002F024FF03461A46474B1A704248494988
:101270001E22444B02F01AFF03461A46424B1A70D4
:101280003D48424901223F4B02F010FF03461A46F7
:101290003D4B1A703848404914223A4B02F006FF81
:1012A00003461A46384B1A70334838490122354BE9
:1012B00002F0FCFE03461A46334B1A702E4837499B
:1012C0001922304B02F0F2FE03461A462E4B1A70DA
:1012D00029482E4901222B4B02F0E8FE03461A460C
:1012E000294B1A7024482E491122264B02F0DEFEAB
:1012F00003461A46244B1A701F4824490122214BE9
:1013000002F0D4FE03461A461F4B1A701A482549AC
:1013100017221C4B02F0CAFE03461A461A4B1A70DB
:1013200015481A490122174B02F0C0FE03461A461F
:10133000154B1A7010481C490222124B02F0B6FEDF
:1013400003461A46104B1A700B4803F0E1F8FEE70B
:10135000540400206C04002058040020480700209A
:10136000CDCCCCCC780400205007002052070020C0
:1013700064040020F40400205C070020446D000099
:10138000606C00003407002049070020F46C000066
:10139000686C0000A46C00008C6C0000706C000095
:1013A000C46C0000D86C0000F06C000080B500AF89
:1013B0000020FFF7EBFC03461A46C64B1A700120CB
:1013C000FFF7E4FC03461A46C34B1A700220FFF7EE
:1013D000DDFC03461A46C14B1A700420FFF7D6FC09
:1013E00003461A46BE4B1A700520FFF7CFFC034692
:1013F0001A46BC4B1A700620FFF7C8FC03461A4673
:10140000B94B1A70B84B1B78B84AA2FB0323DB0810
:10141000DBB21846FFF7D0FC03461A46B44B1A70ED
:10142000B14B1A78B14BA3FB0213D9080B469B00B2
:101430000B445B00D31ADBB21846FFF7BDFC034632
:101440001A46AB4B5A70AA4B2D229A70A54B1B78AB
:10145000A64AA2FB0323DB08DBB21846FFF7ACFC6D
:1014600003461A46A24BDA709E4B1A789F4BA3FB99
:101470000213D9080B469B000B445B00D31ADBB266
:101480001846FFF799FC03461A46994B1A71984B78
:101490002D225A71924B1B78944AA2FB0323DB083E
:1014A000DBB21846FFF788FC03461A46904B9A7148
:1014B0008B4B1A788D4BA3FB0213D9080B469B006C
:1014C0000B445B00D31ADBB21846FFF775FC0346EA
:1014D0001A46874BDA71814B1B78844AA2FB03239F
:1014E000DB08DBB21846FFF767FC03461A46814B60
:1014F0001A707A4B1A787D4BA3FB0213D9080B465E
:101500009B000B445B00D31ADBB21846FFF754FC78
:1015100003461A46774B5A70764B3A229A706E4BB6
:101520001B78724AA2FB0323DB08DBB21846FFF7E5
:1015300043FC03461A466F4BDA70674B1A786B4BC5
:10154000A3FB0213D9080B469B000B445B00D31A84
:10155000DBB21846FFF730FC03461A46654B1A719A
:10156000644B3A225A715B4B1B78604AA2FB0323FF
:10157000DB08DBB21846FFF71FFC03461A465D4B3B
:101580009A71544B1A78594BA3FB0213D9080B4696
:101590009B000B445B00D31ADBB21846FFF70CFC30
:1015A00003461A46534BDA715348FEF77BFF524805
:1015B000FEF7BEFFB0EE407AF0EE607A4F4B83ED5F
:1015C000007B4D48FEF7ECFFB0EE407AF0EE607A1B
:1015D0004B4B83ED007BFFF72BF8F0EE407A494B45
:1015E000C3ED007AFFF7D0F8B0EE407AF0EE607A03
:1015F000454B83ED007B434BD3ED007A4348B0EE7F
:10160000670A0221FFF73CFC3C4BD3E9002310465C
:10161000194605F0A1FA03463D4800EE103A0221B2
:10162000FFF72EFC364BD3E900231046194605F090
:1016300093FA0346374800EE103A0221FFF720FCE8
:10164000314BD3E900231046194605F085FA0346CD
:10165000314800EE103A0221FFF712FC00202F491A
:1016600002F0BAFB0346002B40F026812C482D499E
:1016700003F002F90346002B40F01A81284802F0DB
:101680005BFF2948274903F0F7F80346002B40F099
:101690000F81254802F050FF24482549132202F00B
:1016A000C5FB0346002B40F00381204BDB681A4644
:1016B000204B1A601D4BDB681C48194602F088FF5E
:1016C0000346002B40F0F1801B480121012200F06D
:1016D00067FD33E052070020500700204807002034
:1016E000580700203007002051070020CDCCCCCC7B
:1016F0006C040020780400202C07002090040020B7
:10170000880400205004002038070020980400209E
:10171000A0040020A8040020B0040020F40400204D
:1017200058040020DC040020640400205C07002032
:10173000446D000044070020004002404FF4FA705E
:10174000FEF794FD5F480121002200F029FD5E486C
:1017500005F058FA03465D485B491A465C4B02F0B7
:10176000A5FC03461A465B4B1A7058485A49012299
:10177000574B02F09BFC03461A46564B1A705748CB
:1017800005F040FA0346514854491A46504B02F0BE
:101790008DFC03461A464F4B1A704C484E490122A5
:1017A0004B4B02F083FC03461A464A4B1A704C48D6
:1017B00005F028FA0346454849491A46444B02F0C9
:1017C00075FC03461A46434B1A70404842490122B1
:1017D0003F4B02F06BFC03461A463E4B1A704148E1
:1017E00005F010FA034639483E491A46384B02F0D4
:1017F0005DFC03461A46374B1A70344836490122BD
:10180000334B02F053FC03461A46324B1A703648EB
:1018100005F0F8F903462D4833491A462C4B02F0DF
:1018200045FC03461A462B4B1A7028482A490122C8
:10183000274B02F03BFC03461A46264B1A702B48F6
:1018400005F0E0F90346214828491A46204B02F0EA
:101850002DFC03461A461F4B1A701C481E490122D4
:101860001B4B02F023FC03461A461A4B1A7017480A
:101870001F490122164B02F019FC03461A46154B6C
:101880001A70124814490122114B02F00FFC034652
:101890001A46104B1A700D48164902220C4B02F0E2
:1018A00005FC03461A460B4B1A70084802F030FE3E
:1018B00000200F4902F090FA0F48802100F060FCF0
:1018C00080BD00BF004002406C0400205C07002087
:1018D0003407002049070020F46C00007804002041
:1018E000A8040020A004002098040020B0040020D8
:1018F000F86C0000F06C00000060004080B483B021
:1019000000AF78607B6803F47F431A0A0D4B1344E1
:1019100003F070427B6803F47F43190A094B0B44C0
:10192000C3F313035B011A437B68DBB29B001343D1
:1019300043F000731A46012313600C37BD465DF86F
:10194000047B704700E60F4001387FF4FDAF70471D
:1019500080B586B000AF7860724B1B683B61724BFC
:101960001B68FB603B6943F400633B613B6923F404
:1019700080033B61FB6843F40063FB60694A3B6999
:101980001360694AFB6813603B6903F00103002B95
:1019900026D07B6803F00103002B21D17B6863F024
:1019A00001033A6913403B61604B4FF480721A6047
:1019B0005C4A3B6913604FF400237B6106E07B695E
:1019C000013B7B617B69002B00D105E0584B1B6814
:1019D00003F48073002BF2D07B69002B00D19EE0D2
:1019E0003B6923F4FE633B617B6803F4FE633A6961
:1019F00013433B61FB6823F0004323F07003FB605B
:101A00007A684C4B1340FA681343FB607B6803F021
:101A10000803DB00FA681343FB60424A3B6913602A
:101A2000414AFB6813603B6923F400533B617B68C8
:101A300003F400533A6913433B61FB6823F40053FA
:101A4000FB607B6803F40053FA681343FB60374B79
:101A500040221A60FB68002B06DA334AFB681360E9
:101A6000304A3B69136005E02E4A3B6913602E4AF9
:101A7000FB6813603B6923F0F86323F001033B61CB
:101A80007A682D4B13403A6913433B61FB6823F09E
:101A9000FC53FB607B6803F0FC53FA681343FB6064
:101AA0007B6803F08043002B0ED03B6943F4800336
:101AB0003B61FB6823F48003FB607A681F4B134093
:101AC000FA681343FB6003E0FB6823F08043FB608C
:101AD0007B6803F40063002B18D14FF400437B6153
:101AE00009E0174B1B6803F00103002B00D005E051
:101AF0007B69013B7B617B69002BF2D13B6923F45D
:101B000000633B61FB6823F40063FB60054A3B69AB
:101B10001360054AFB6813601020FFF715FF1837A4
:101B2000BD4680BD60E00F4070E00F4058E00F40C0
:101B300050E00F40300000800100C007000040402E
:101B400068E10F4080B487B000AF714B1B687B61C8
:101B5000704B1B68BB60BB68002B03DABB6803F0EB
:101B6000700302E07B6903F03003202B17D0202B99
:101B700004D8002B07D0102B0ED01BE0302B11D037
:101B8000702B13D016E07B6903F4F8639B09624A5B
:101B900052F823303B610FE0604B3B610CE0604B3F
:101BA0003B6109E047F230533B6105E04FF40043ED
:101BB0003B6101E00023A5E04FF0FF33FB60BB6811
:101BC000002B04DABB6803F40063002B07D0BB686A
:101BD000002B55DB7B6903F40063002B50D1514B84
:101BE0001B687B60504B1B683B603B6803F4F853F9
:101BF0001B0A01333A6802F01F02013202FB03F3B1
:101C00005B003A69B2FBF3F33B617B68C3F3090302
:101C10003A6902FB03F27968444B0B409B0A39692D
:101C200001FB03F39B0A13443B617B6943F480038C
:101C30007B613F4B1B6803F47043B3F5804F16D0B4
:101C4000B3F5804F06D8B3F5005F0AD0B3F5405F17
:101C50000AD015E0B3F5E04F0CD0B3F5104F0CD01F
:101C60000EE0344BFB600BE0334BFB6008E0334B82
:101C7000FB6005E0324BFB6002E0324BFB6000BFD3
:101C80007B6903F48003002B35D0BB68002B29DA75
:101C9000BB6803F08043002B1AD0BB68002B04DA2A
:101CA000BB6803F40063002B07D0BB68002B0FDB7D
:101CB0007B6903F40063002B0AD13B695A00BB68BF
:101CC00003F0FE539B0D0133B2FBF3F33B6112E0D3
:101CD000BB6803F0FC53DB0D01333A69B2FBF3F34D
:101CE0003B6108E07B6903F0F063DB0D01333A6987
:101CF000B2FBF3F33B61FA683B699A4201D2FB689D
:101D00003B613B6918461C37BD465DF8047B704754
:101D100060E00F4070E00F40506D00000024F400C0
:101D200000093D0060E10F4064E10F4000FC0F003E
:101D300010E00F4000B4C40480F0FA02005A6202BE
:101D400040787D01002D310180B485B000AFF8608E
:101D50000B467A60FB72FB6803F5806319467B686B
:101D600003F00103002B06D0FB6803F580631A68BB
:101D7000FB7A134306E0FB6803F580631B68FA7A7D
:101D8000D24313400B60FB6803F5846319467B68FC
:101D900003F00203002B06D0FB6803F584631A6886
:101DA000FB7A134306E0FB6803F584631B68FA7A49
:101DB000D24313400B601437BD465DF8047B704777
:101DC00080B485B000AFF8600B467A60FB72FB68A8
:101DD00003F5816319467B6803F00103002B06D0ED
:101DE000FB6803F581631A68FB7A134306E0FB681E
:101DF00003F581631B68FA7AD24313400B60FB68DA
:101E000003F2044319467B6803F00203002B06D05B
:101E1000FB6803F204431A68FB7A134306E0FB688D
:101E200003F204431B68FA7AD24313400B60FB6849
:101E300003F20C4319467B6803F00403002B06D021
:101E4000FB6803F20C431A68FB7A134306E0FB6855
:101E500003F20C431B68FA7AD24313400B60FB6811
:101E600003F5A7631A467B6803F48033002B06D082
:101E7000FB6803F5A7631B6843F0010305E0FB68FB
:101E800003F5A7631B6823F0010313601437BD46F5
:101E90005DF8047B704700BF80B487B000AFF86086
:101EA0007A603B600B46FB720023FB752CE0FA7AEC
:101EB000FB7D42FA03F303F00103002B21D0FB6802
:101EC00003F6C4731846FB6803F6C4731B68FA7DF7
:101ED0005200032101FA02F2D24313400360FB686F
:101EE00003F6C4731846FB6803F6C4731A687B686C
:101EF0005B0903F00301FB7D5B0001FA03F313436D
:101F00000360FB7D0133FB75FB7D072BCFD9FB689D
:101F100003F5A06319467B6803F00103002B06D08C
:101F2000FB6803F5A0631A68FB7A134306E0FB68BD
:101F300003F5A0631B68FA7AD24313400B60FB6879
:101F400003F2045319467B6803F00203002B06D00A
:101F5000FB6803F204531A68FB7A134306E0FB683C
:101F600003F204531B68FA7AD24313400B60FB68F8
:101F700003F5A16319467B6803F00403002B06D028
:101F8000FB6803F5A1631A68FB7A134306E0FB685C
:101F900003F5A1631B68FA7AD24313400B60FB6818
:101FA00003F5A36319467B6803F00803002B06D0F2
:101FB000FB6803F5A3631A68FB7A134306E0FB682A
:101FC00003F5A3631B68FA7AD24313400B60FB68E6
:101FD00003F23C5319467B6803F01003002B06D034
:101FE000FB6803F23C531A68FB7A134306E0FB6874
:101FF00003F23C531B68FA7AD24313400B60FB6830
:1020000003F20C5319463B6803F00103002B06D082
:10201000FB6803F20C531A68FB7A134306E0FB6873
:1020200003F20C531B68FA7AD24313400B60FB682F
:1020300003F5A26319463B6803F00203002B06D0A8
:10204000FB6803F5A2631A68FB7A134306E0FB689A
:1020500003F5A2631B68FA7AD24313400B60FB6856
:1020600003F2145319463B6803F00403002B06D017
:10207000FB6803F214531A68FB7A134306E0FB680B
:1020800003F214531B68FA7AD24313400B60FB68C7
:1020900003F21C5319463B6803F00803002B06D0DB
:1020A000FB6803F21C531A68FB7A134306E0FB68D3
:1020B00003F21C531B68FA7AD24313400B60FB688F
:1020C00003F2445319463B6803F40073002B06D017
:1020D000FB6803F244531A68FB7A134306E0FB687B
:1020E00003F244531B68FA7AD24313400B60FB6837
:1020F00003F5A86319463B6803F44073002B06D030
:10210000FB6803F5A8631A68FB7A134306E0FB68D3
:1021100003F5A8631B68FA7AD24313400B60FB688F
:1021200003F5A56319463B68002B06D1FB6803F550
:10213000A5631A68FB7A134306E0FB6803F5A56301
:102140001B68FA7AD24313400B601C37BD465DF81A
:10215000047B704780B483B000AF786039607B68DF
:1021600003F5826319467B6803F582631A683B684E
:1021700013430B600C37BD465DF8047B704700BF0E
:1021800080B483B000AF786039607B6803F21C4391
:102190001A463B6813600C37BD465DF8047B7047F8
:1021A00080B483B000AF78600B46FB701346BB7001
:1021B000FB789B001A467B6813441A46BB78136071
:1021C0000C37BD465DF8047B704700BF80B582B018
:1021D00000AF78600B46FB70FB78786819460022E8
:1021E000FFF7B2FDFB787868194601220823FFF754
:1021F00053FE0837BD4680BD80B582B000AF786021
:102200000B46FB70FB787868194601220823FFF71C
:1022100043FEFB78786819460122FFF795FD0837E1
:10222000BD4680BD80B582B000AF78600B46FB70C4
:10223000FB78786819460222FFF786FDFB787868FC
:10224000194601220923FFF727FE0837BD4680BD46
:1022500080B582B000AF78600B46FB70FB78786881
:1022600019460222FFF770FDFB78786819460122B3
:102270000823FFF711FE0837BD4680BD80B582B048
:1022800000AF78600B46FB70FB7878681946022235
:10229000FFF75AFDFB787868194601220823FFF7FB
:1022A000FBFD0837BD4680BD80B485B000AF7860C7
:1022B0007B681B0CDBB2FB601A4B1B68FA680121C0
:1022C00001FA02F21340002B07D0FB685B000133D8
:1022D000154A52F82330FB6005E0FB685B00124AA8
:1022E00052F82330FB607B681B0ADBB2BB60FB68E3
:1022F00003F22C531846FB6803F22C531B68BA6890
:102300000F2101FA02F2D2431A407B6803F00F0159
:10231000BB6801FA03F3134303601437BD465DF84D
:10232000047B70476CE00F409C70000080B500AFEC
:1023300003F090F90346002B14BF01230023DBB206
:10234000184680BD80B483B000AF78607B68042BF2
:1023500006D11E4A1D4B1B6843F4803313602FE0E7
:102360007B68052B06D1194A184B1B6843F40033D0
:10237000136025E07B68062B06D1144A134B1B68BB
:1023800043F4802313601BE07B680F2B06D1104AB7
:102390000F4B1B6843F00203136011E07B680F2BA7
:1023A0000ED97B68103B5B090A4A52F82330194664
:1023B0007B68103B03F01F03012202FA03F30B605A
:1023C0000C37BD465DF8047B704700BF24ED00E08C
:1023D00010E000E0E871000080B48BB000AFF8605E
:1023E000B9607A603B603B68002B01D1002300E0BC
:1023F00004233B62FB6804331A463B6A1360BA68E5
:102400003B6BB2FBF3F3FB6100237B627B6A02331D
:102410007B62FA697B6AB2FBF3F3013BBB61BB6988
:10242000FF2BF3D8FB6810331A467B6A13607B6876
:102430009B01DBB27B617B6803F030037B60BB698F
:102440001A027B691A437B681A437B6B013B134377
:102450003B62FB683A6A1A602C37BD465DF8047B24
:10246000704700BF80B483B000AF78607B680433EE
:102470001A467B6804331B6843F0020313600C3771
:10248000BD465DF8047B704780B483B000AF7860D0
:102490007B6804331A467B6804331B6823F002030D
:1024A00013600C37BD465DF8047B704780B483B081
:1024B00000AF7860396000BF7B680C331B6803F0A5
:1024C0000203002BF8D07B6808331A463B68136080
:1024D0000C37BD465DF8047B704700BF80B483B005
:1024E00000AF786039607B680C331B6803F002032F
:1024F000002B06D07B6808331A463B681360012323
:1025000000E0002318460C37BD465DF8047B704799
:1025100080B483B000AF7860396000BF7B680C3353
:102520001B6803F00403002BF8D07B6808331A689B
:102530003B681A600C37BD465DF8047B704700BFEE
:1025400080B483B000AF786039607B6803F6C873ED
:102550001A463B6813600C37BD465DF8047B704734
:1025600080B487B000AFF860B9607A60FB687B61C7
:10257000BB683B6107E07B695A1C7A613A69511C70
:10258000396112781A707B685A1E7A60002BF2D17A
:102590001C37BD465DF8047B704700BF80B487B030
:1025A00000AFF860B9607A60FB687B6105E07B6929
:1025B0005A1C7A61BA68D2B21A707B685A1E7A6065
:1025C000002BF4D11C37BD465DF8047B704700BF7B
:1025D00080B489B000AFF860B9607A60FB68FB61D5
:1025E000BB68BB6100237B6100BF7B685A1E7A60B9
:1025F000002B0DD0FB695A1CFA611B781946BB6988
:102600005A1CBA611B78CB1A7B617B69002BECD01A
:102610007B6918462437BD465DF8047B704700BFD0
:1026200080B483B000AF7860396002E07B6801332A
:102630007B607B681B78002B05D07B681B781A4673
:102640003B689A42F2D17B681B7818460C37BD462E
:102650005DF8047B704700BF80B584B000AF786040
:102660007B681B79002B3AD07B685B6BFB607B68D7
:102670005A787B68383310461946FA68012302F00D
:10268000F7FD0346002B01D0012329E07B680022DF
:102690001A717B689A6AFB689A4220D87B689A6AAA
:1026A0007B681B6A1A44FB689A4218D97B68DB78FE
:1026B000BB6011E07B681B6AFA681344FB607B68AF
:1026C0005A787B68383310461946FA68012302F0BD
:1026D000CFFDBB68013BBB60BB68012BEAD8002380
:1026E00018461037BD4680BD80B582B000AF786017
:1026F00039607B685A6B3B689A4219D07868FFF75B
:10270000ABFF0346002B01D0012312E07B685A780F
:102710007B683833104619463A68012302F03EFDC3
:102720000346002B01D0012303E07B683A685A631B
:10273000002318460837BD4680BD00BF80B584B071
:1027400000AF78607868FFF787FF0346FB73FB7B79
:10275000002B40F092807B681B78032B40F0818037
:102760007B685B79002B7CD07B6800225A637B6896
:102770003833184600214FF40072FFF70FFF7B68D3
:10278000552283F836227B68AA2283F837227B6899
:10279000522283F838207B68522283F839207B68E4
:1027A000612283F83A207B68412283F83B207B68D2
:1027B000722283F81C227B68722283F81D227B68B8
:1027C000412283F81E227B68612283F81F227B68E6
:1027D0001B69DAB27B6883F820227B681B699BB295
:1027E0001B0A9BB2DAB27B6883F821227B681B69E3
:1027F0001B0CDAB27B6883F822227B681B691B0EF4
:10280000DAB27B6883F823227B68DB68DAB27B6804
:1028100083F824227B68DB689BB21B0A9BB2DAB286
:102820007B6883F825227B68DB681B0CDAB27B6847
:1028300083F826227B68DB681B0EDAB27B6883F89C
:1028400027227B6859787B6803F138027B685B69D3
:10285000084611461A46012302F00AFD7B68002251
:102860005A717B685B7818460021002202F086FDD1
:102870000346002B01D00123FB73FB7B1846103766
:10288000BD4680BD80B483B000AF786039603B68DE
:10289000023B3B607B68DB699A1E3B689A4201D829
:1028A000002308E07B689B781A463B6803FB02F232
:1028B0007B681B6B134418460C37BD465DF8047BE0
:1028C000704700BF80B586B000AF786039603B6864
:1028D000012B04D97B68DA693B689A4201D801234D
:1028E00098E07B681B78022B48D0032B67D0012B24
:1028F00040F08E803B687B617B695B087A6913449A
:102900007B617B689A6A7B695B0A13447868194625
:10291000FFF7EAFE0346002B00D079E07B69C3F3A2
:1029200008037A68134493F838303B617B690133BC
:102930007B617B689A6A7B695B0A134478681946F5
:10294000FFF7D2FE0346002B00D061E07B69C3F3A2
:1029500008037A68134493F838301B021A463B691F
:1029600013433B613B6803F00103002B02D03B693A
:102970001B094FE03B69C3F30B034BE07B689A6A8A
:102980003B681B0A134478681946FFF7ADFE0346FF
:10299000002B00D03CE03B685B0003F4FF7338334E
:1029A0007A681344FB60FB6801331B781B029AB200
:1029B000FB681B789BB213439BB29BB22AE07B68F7
:1029C0009A6A3B68DB09134478681946FFF78CFE66
:1029D0000346002B00D01BE03B689B0003F4FE7312
:1029E00038337A681344FB60FB6803331B781A069C
:1029F000FB6802331B781B041343FA680132127818
:102A000012021343FA681278134323F0704301E073
:102A10004FF0FF3318461837BD4680BD80B588B0EB
:102A200000AFF860B9607A60BB68012B04D9FB681D
:102A3000DA69BB689A4202D80223FB77E3E0FB68BD
:102A40001B78022B70D0032B00F09280012B40F0FA
:102A5000D580BB68BB61BB695B08BA691344BB61C5
:102A6000FB689A6ABB695B0A1344F8681946FFF76A
:102A70003BFE0346FB77FB7F002B00D0C0E0BB6929
:102A8000C3F308033833FA6813447B61BB6803F06F
:102A90000103002B0DD07B691B78DBB203F00F0321
:102AA000DAB27B68DBB21B01DBB21343DBB2DBB211
:102AB00001E07B68DBB27A691370BB690133BB61EB
:102AC000FB6801221A71FB689A6ABB695B0A1344AE
:102AD000F8681946FFF708FE0346FB77FB7F002BDB
:102AE00000D08DE0BB69C3F308033833FA681344A0
:102AF0007B61BB6803F00103002B03D07B681B09DB
:102B0000DBB20EE07B691B78DBB223F00F03DAB295
:102B10007B681B0ADBB203F00F03DBB21343DBB2AB
:102B2000DBB27A6913706BE0FB689A6ABB681B0AB8
:102B30001344F8681946FFF7D7FD0346FB77FB7F80
:102B4000002B00D05CE0BB685B0003F4FF733833FC
:102B5000FA6813447B617B68DAB27B691A707B691F
:102B600001337A6892B2120A92B2D2B21A7047E076
:102B7000FB689A6ABB68DB091344F8681946FFF7DB
:102B8000B3FD0346FB77FB7F002B00D038E0BB682A
:102B90009B0003F4FE733833FA6813447B617B694E
:102BA00003331B781A067B6902331B781B0413431B
:102BB0007A6901321278120213437A691278134348
:102BC00003F070437A6813437B607B68DAB27B69F9
:102BD0001A707B6901337A6892B2120A92B2D2B249
:102BE0001A707B6902337A68120CD2B21A707B6950
:102BF00003337A68120ED2B21A7001E00223FB7717
:102C0000FB6801221A71FB7F18462037BD4680BD44
:102C100080B584B000AF786039603B68012B04D97F
:102C20007B68DA693B689A4202D80223FB7337E07B
:102C30000023FB732FE078683968FFF743FEB86024
:102C4000BB68002B00D12BE0BB68012B02D1022313
:102C5000FB7325E0BB68B3F1FF3F02D10123FB7397
:102C60001EE0786839680022FFF7D8FE0346FB7340
:102C7000FB7B002B00D013E07B681B69B3F1FF3FA7
:102C800007D07B681B695A1C7B681A617B6801222C
:102C90005A71BB683B607B68DA693B689A42CAD864
:102CA000FB7B18461037BD4680BD00BF80B586B09F
:102CB00000AF786039603B68002B0DD17B68DB6822
:102CC0003B613B69002B04D07B68DA693B699A421F
:102CD00015D801233B6112E078683968FFF7F2FDEF
:102CE000B860BB68012B01D8012366E07B68DA6914
:102CF000BB689A4201D9BB685FE03B683B613B69B6
:102D00007B617B6901337B617B68DA697B699A420D
:102D100007D802237B617A693B699A4201D9002373
:102D20004BE078687969FFF7CDFDB860BB68002B90
:102D30000CD100BF786879696FF07042FFF76EFEC2
:102D40000346FB73FB7B002B1AD10FE0BB68B3F18A
:102D5000FF3F02D0BB68012B01D1BB682DE07A692F
:102D60003B699A4201D1002327E0CAE73B68002B68
:102D700006D0786839687A69FFF750FE0346FB731E
:102D8000FB7B002B10D17B687A69DA607B681B695A
:102D9000B3F1FF3F10D07B681B695A1E7B681A6134
:102DA0007B6801225A7107E0FB7B012B02D14FF0B7
:102DB000FF3300E001237B617B6918461837BD466D
:102DC00080BD00BF80B584B000AF78600B467B80CB
:102DD0007B687A88DA807B689B68FB60FB68012BE4
:102DE00005D07B681B68DA69FB689A4201D8022328
:102DF00065E0FB68002B08D17B681B681B78032B00
:102E000003D17B681B68DB6AFB60FB68002B14D175
:102E10007B68FA68DA607B681B681B897A889A424B
:102E200001D302234BE07B681B68DB6A7A881209B6
:102E300092B21A447B681A6136E07B681B689B7803
:102E40009BB21B017B811BE07B681B681846F968FD
:102E5000FFF738FDF860FB68B3F1FF3F01D10123B4
:102E60002DE0FB68012B05D97B681B68DA69FB68DC
:102E70009A4201D8022322E07A887B89D31A7B8088
:102E80007A887B899A42DFD27B68FA68DA607B684D
:102E90001B681846F968FFF7F5FC02467B881B099A
:102EA0009BB21A447B681A617B681A687B8803F0BE
:102EB0000F035B0138331A447B685A6100231846BC
:102EC0001037BD4680BD00BF90B585B000AF7860BB
:102ED00039607B68DB8801333B813B89002B03D061
:102EE0007B681B69002B01D10423BAE03B8903F006
:102EF0000F039BB2002B40F0A6807B681B695A1C15
:102F00007B681A617B68DB68002B08D17B681B68D3
:102F10001B893A899A42C0F096800423A1E03B893C
:102F20001B099BB21A467B681B689B78013B1340C8
:102F3000002B40F088807B681A687B68DB6810464D
:102F40001946FFF7BFFCF860FB68012B01D802238C
:102F500087E0FB68B3F1FF3F01D1012381E07B688B
:102F60001B68DA69FB689A4261D83B68002B01D183
:102F7000042376E07B681A687B68DB681046194694
:102F8000FFF794FEF860FB68002B01D1072368E08F
:102F9000FB68012B01D1022363E0FB68B3F1FF3F23
:102FA00001D101235DE07B681B681846FFF754FBE5
:102FB0000346002B01D0012353E07B681B683833A4
:102FC000184600214FF40072FFF7E8FA7B681C688E
:102FD0007B681B681846F968FFF754FC0346636377
:102FE0000023FB7215E07B681B6801221A717B6865
:102FF0001B681846FFF730FB0346002B01D0012366
:103000002FE07B681B685A6B01325A63FB7A0133ED
:10301000FB727B681B689B78FA7A9A42E3D37B68E1
:103020001B687A681268516BFA7A8A1A5A637B684D
:10303000FA68DA607B681B681846F968FFF722FCBB
:1030400002467B681A617B683A89DA807B681A6875
:103050003B8903F00F035B0138331A447B685A61E4
:10306000002318461437BD4690BD00BF80B584B01C
:1030700000AF7860396078680021FFF7A3FE03464F
:10308000FB73FB7B002B2DD10023BB607B681A6890
:103090007B681B6910461946FFF726FB0346FB7346
:1030A000FB7B002B00D01DE07B685B691B78E52B68
:1030B00004D07B685B691B78002B08D1BB680133A7
:1030C000BB60BA683B689A4200D10BE001E0002384
:1030D000BB6078680121FFF7F7FE0346FB73FB7BBB
:1030E000002BD3D0FB7B18461037BD4680BD00BFF8
:1030F00080B485B000AF786039603B681B331B78C3
:103100001B029AB23B681A331B789BB213439BB2E3
:103110009BB2FB607B681B78032B0FD13B68153398
:103120001B781B029AB23B6814331B789BB2134383
:103130009BB29BB21B04FA681343FB60FB68184602
:103140001437BD465DF8047B704700BF80B483B080
:1031500000AF786039607B681A333A68D2B21A706F
:103160007B681B333A6892B2120A92B2D2B21A70DA
:103170007B6814333A68120CD2B21A707B6815332C
:103180003A68120C92B2120A92B2D2B21A700C378A
:10319000BD465DF8047B704780B586B000AF7860AF
:1031A00078680021FFF70EFE0346FB75FB7D002BC0
:1031B00001D0FB7D35E07B681A687B681B6910468F
:1031C0001946FFF791FA0346FB75FB7D002B00D0F3
:1031D00026E07B685B693B613B691B78FB73FB7B8B
:1031E000002B02D10423FB751AE03B690B331B78DB
:1031F00003F00803002B0AD17B689B6938691946E4
:103200000B22FFF7E5F90346002B00D108E07868B0
:103210000021FFF759FE0346FB75FB7D002BCAD04A
:10322000FB7D18461837BD4680BD00BF80B584B011
:1032300000AF786078680121FFF718FF0346FB7341
:10324000FB7B002B20D17B681A687B681B691046CA
:103250001946FFF749FA0346FB73FB7B002B13D19A
:103260007B685B69184600212022FFF797F97B688D
:103270005A697B689B69104619460B22FFF770F963
:103280007B681B6801221A71FB7B18461037BD460C
:1032900080BD00BF80B58AB000AF786039603B6800
:1032A0001B687B6102E07B6901337B617B691B7872
:1032B0002F2BF8D07B691B785C2BF4D07B689B6943
:1032C0003B61386920210B22FFF768F9002387F85A
:1032D00027300023BB61BB69FB6108233B627A692D
:1032E000FB6913441B782E2B36D1FB695A1CFA61FB
:1032F0007A6913441B7887F8263097F826302E2BEE
:103300000BD1FB69022B08D8BB695A1CBA613A6918
:10331000134497F826201A70E7E797F826302F2BEA
:1033200009D097F826305C2B05D097F82630202B53
:1033300001D90623FEE07A69FB691A443B681A60EA
:103340003B690B3397F82620202A01D8242200E07D
:1033500020221A700023EDE0FB695A1CFA617A6999
:1033600013441B7887F8263097F82630202B40F23C
:10337000A18097F826302F2B00F09C8097F82630FC
:103380005C2B00F0978097F826302E2B03D0BA697B
:103390003B6A9A4212D33B6A082B03D197F8263036
:1033A0002E2B01D00623C5E00823BB610B233B6213
:1033B00097F827309B0087F827307AE097F8263077
:1033C0005BB2002B05DA97F8273043F0030387F848
:1033D000273097F82630802B03D997F826309F2B7B
:1033E00007D997F82630DF2B2ED997F82630FC2BFB
:1033F0002AD8FB695A1CFA617A6913441B78FB735B
:10340000FB7B3F2B02D9FB7B7E2B06D9FB7B5BB280
:10341000002B07DAFB7BFC2B04D83B6A5A1EBB69E6
:103420009A4201D8062385E0BB695A1CBA613A6901
:10343000134497F826201A70BB695A1CBA613A697E
:103440001344FA7B1A7034E097F826303B4819464B
:10345000FFF7E6F80346002B01D006236AE097F851
:103460002630402B0AD997F826305A2B06D897F8E1
:10347000273043F0020387F8273012E097F8263010
:10348000602B0ED997F826307A2B0AD897F8273078
:1034900043F0010387F8273097F82630203B87F860
:1034A0002630BB695A1CBA613A69134497F8262042
:1034B0001A7051E77A69FB691A443B681A6097F8F9
:1034C0002630202B01D8042300E0002387F8263083
:1034D000BB69002B01D106232CE03B691B78E52B4F
:1034E00002D13B6905221A703B6A082B04D197F878
:1034F00027309B0087F8273097F8273003F0030325
:10350000012B05D197F8263043F0100387F82630B9
:1035100097F8273003F00C03042B05D197F82630D9
:1035200043F0080387F826303B690B3397F82620D1
:103530001A70002318462837BD4680BD3872000037
:1035400080B489B000AF786039603B680933BB61F3
:103550007B681B69002B76D07B685B693B613B69AC
:103560001B7BFB730023FB6115E03A69FB69134485
:103570001B78FB75FB7D202B00D10FE0FB7D052B1D
:1035800001D1E523FB75BB695A1CBA61FA7D1A703B
:10359000FB690133FB61FB69072BE6D93B69083303
:1035A0001B78202B1BD0BB695A1CBA612E221A70C3
:1035B0000823FB6110E03A69FB6913441B78FB7533
:1035C000FB7D202B00D10AE0BB695A1CBA61FA7D51
:1035D0001A70FB690133FB61FB690A2BEBD93B696C
:1035E000DA7A3B681A723B691F331B781A063B690B
:1035F0001E331B781B0413433A691D3212781202E2
:1036000013433A691C3212781A433B681A603B69CB
:1036100019331B781B029AB23B6918331B789BB293
:1036200013439BB29AB23B689A803B6917331B786D
:103630001B029AB23B6916331B789BB213439BB2B1
:103640009AB23B68DA80BB6900221A702437BD4603
:103650005DF8047B704700BF80B584B000AF786030
:1036600039603B681B782F2B03D03B681B785C2BA1
:1036700006D13B6801333B607B6800229A6004E01E
:103680007B681B689A697B689A603B681B781F2B74
:1036900009D878680021FFF795FB0346FB737B6828
:1036A00000225A6153E03B4678681946FFF7F2FD65
:1036B0000346FB73FB7B002B00D048E07868FFF7E4
:1036C0006BFD0346FB737B689B69DB7ABB73FB7BFB
:1036D000002B1FD0FB7B042B00D038E0BB7B03F01A
:1036E0002003002B0DD07B6800229A607B680022AB
:1036F0005A610023FB73BB7B03F00403002B08D14A
:1037000024E0BB7B03F00403002B02D10523FB73F1
:103710001DE01CE0BB7B03F00403002B00D016E08F
:103720007B685B69BB60BB680B331B7803F01003DD
:10373000002B02D10523FB7309E07B681B68184648
:10374000B968FFF7D5FC02467B689A60ABE7FB7B64
:1037500018461037BD4680BD80B582B000AF786096
:1037600039607B685A787B683833104619463A6866
:10377000012301F013FD0346002B01D0032343E096
:103780007B6893F837321B029AB27B6893F8363223
:103790009BB213439BB21BB21D4A934201D002233A
:1037A00032E07B6893F871301A067B6893F87030CA
:1037B0001B0413437A6892F86F20120213437A684D
:1037C00092F86E20134323F07F43124A934201D1B3
:1037D000002319E07B6893F88D301A067B6893F814
:1037E0008C301B0413437A6892F88B201202134327
:1037F0007A6892F88A20134323F07F43054A934264
:1038000001D1002300E0012318460837BD4680BDE2
:1038100055AAFFFF4641540080B592B000AFF86052
:10382000B9601346FB71FB681B68FB62FB6A1B787F
:10383000303B3B643B6C092B0BD8FB6A01331B7894
:103840003A2B06D1FB6A0233FB62FB68FA6A1A6004
:1038500002E0AE4B1B783B64BB6800221A603B6CF5
:10386000002B01D00B237CE2A94A3B6C52F8233099
:10387000BB62BB6A002B01D10C2372E2BB68BA6A3F
:103880001A60BB6A1B78002B1AD0BB6A5B7818469B
:1038900001F06EFC034687F8273097F8273003F0D5
:1038A0000103002B0CD1FB79002B07D097F82730B0
:1038B00003F00403002B01D00A2352E2002350E25C
:1038C000BB6A00221A703B6CDAB2BB6A5A70BB6AE0
:1038D0005B78184601F060FB034687F8273097F8BD
:1038E000273003F00103002B01D0032339E2FB79D9
:1038F000002B07D097F8273003F00403002B01D0EA
:103900000A232EE20023FB63B86AF96BFFF724FF5A
:10391000034687F8473097F84730012B33D100230F
:1039200087F8463097F84630002B04D097F8463099
:10393000013B87F8463097F846301B0103F5DF73EB
:103940003833BA6A13443B623B6A04331B78002B5A
:1039500019D03B6A0B331B781A063B6A0A331B7873
:103960001B0413433A6A09321278120213433A6A6B
:10397000083212781343FB63B86AF96BFFF7ECFE69
:10398000034687F8473097F84730032B01D10123CE
:10399000E7E197F84730002B01D00D23E1E1BB6A46
:1039A00093F844301B029AB2BB6A93F843309BB23F
:1039B00013439BB21BB2B3F5007F01D00D23D0E1BE
:1039C000BB6A93F84F301B029AB2BB6A93F84E3031
:1039D0009BB213439BB29BB2BB63BB6B002B12D158
:1039E000BB6A93F85F301A06BB6A93F85E301B041B
:1039F0001343BA6A92F85D2012021343BA6A92F82E
:103A00005C201343BB63BB6ABA6B1A62BB6A93F850
:103A10004830FB77BB6AFA7FDA70FB7F012B04D05A
:103A2000FB7F022B01D00D239BE1FA7FBB6B02FBD6
:103A300003F3BB63BB6A93F84530FB77BB6AFA7F3D
:103A40009A70FB7F002B05D0FA7FFB7F013B134070
:103A5000002B01D00D2384E1BB6A93F84A301B028E
:103A60009AB2BB6A93F849309BB213439BB29AB2A5
:103A7000BB6A1A81BB6A1B8903F00F039BB2002B40
:103A800001D00D236DE1BB6A93F84C301B029AB252
:103A9000BB6A93F84B309BB213439BB29BB27B63E0
:103AA0007B6B002B12D1BB6A93F85B301A06BB6AA2
:103AB00093F85A301B041343BA6A92F85920120241
:103AC0001343BA6A92F8582013437B63BB6A93F896
:103AD00047301B029AB2BB6A93F846309BB213433D
:103AE0009BB2BB83BB8B002B01D10D2339E1BA8B79
:103AF000BB6B1344BA6A1289120992B21344BB61B8
:103B00007A6BBB699A4205D20D232AE1C6040020D4
:103B1000C00400207A6BBB69D31ABA6A9278B3FBEF
:103B2000F2F37B617B69002B01D10D2319E10123A5
:103B300087F847307B6940F6F572934202D9022339
:103B400087F847307B694FF6F572934202D9032319
:103B500087F847307B699A1CBB6ADA61BB6AFA6BEB
:103B60005A62BA8BFB6B1A44BB6A9A62FA6BBB69E6
:103B70001A44BB6A1A6397F84730032B1ED1BB6AFD
:103B80001B89002B01D00D23EBE0BB6A93F8673053
:103B90001A06BB6A93F866301B041343BA6A92F89C
:103BA000652012021343BA6A92F864201A43BB6A72
:103BB000DA62BB6ADB699B003B631FE0BB6A1B895F
:103BC000002B01D10D23CCE0BB6A9A6ABB6B1A446F
:103BD000BB6ADA6297F84730022B03D1BB6ADB6914
:103BE0005B000AE0BB6ADA6913465B0013445A08BB
:103BF000BB6ADB6903F0010313443B63BB6A1A6AC7
:103C00003B6B03F2FF135B0A9A4201D20D23A8E03B
:103C1000BB6A4FF0FF321A61BB6A0022DA6097F884
:103C20004730032B40F08580BB6A00225A71BB6A83
:103C300093F869301B029AB2BB6A93F868309BB262
:103C400013439BB29BB21A46FB6B1A44BB6A5A6180
:103C5000BB6A5978BB6A03F13802BB6A5B690846E4
:103C600011461A46012301F099FA0346002B60D150
:103C7000BB6A93F837321B029AB2BB6A93F83632AA
:103C80009BB213439BB21BB2384A934251D1BB6AD9
:103C900093F83B301A06BB6A93F83A301B0413437F
:103CA000BA6A92F8392012021343BA6A92F838209D
:103CB00013432F4A93423CD1BB6A93F81F321A0632
:103CC000BB6A93F81E321B041343BA6A92F81D2292
:103CD00012021343BA6A92F81C221343254A9342F4
:103CE00027D1BB6A93F827321A06BB6A93F82632AB
:103CF0001B041343BA6A92F8252212021343BA6ACC
:103D000092F824221A43BB6ADA60BB6A93F8233222
:103D10001A06BB6A93F822321B041343BA6A92F85C
:103D2000212212021343BA6A92F820221A43BB6A74
:103D30001A61BB6A97F847201A700F4B1B88013332
:103D40009AB20D4B1A800C4B1A88BB6ADA80BB6A98
:103D500000225A63BB6A00221A71BB6A00229A6170
:103D6000002318464837BD4680BD00BF55AAFFFF57
:103D70005252614172724161C404002080B584B026
:103D800000AF78607B68FB60FB68002B0FD0FB689E
:103D90001B68002B0BD0FB681B681B78002B06D020
:103DA000FB681B68DA88FB689B889A4201D009236C
:103DB0000DE0FB681B685B78184601F0D9F90346F3
:103DC00003F00103002B01D0032300E00023184679
:103DD0001037BD4680BD00BF80B485B000AF03463C
:103DE0003960FB71FB79002B01D00B2316E0FB79C6
:103DF0000D4A52F82330FB60FB68002B02D0FB68B1
:103E000000221A703B68002B02D03B6800221A7017
:103E1000FB7905493A6841F82320002318461437F6
:103E2000BD465DF8047B7047C004002080B592B0A9
:103E300000AFF860B9601346FB71FB68002B01D13D
:103E400009232EE1FB6800221A60FB7903F01F03AF
:103E5000FB71FB7923F00103DBB207F1080107F1E5
:103E60001C02084611461A46FFF7D6FC034687F89F
:103E7000473097F84730002B40F0118107F11003CD
:103E80007B63BB6807F11C0210461946FFF7E4FB91
:103E9000034687F847303B6B3B6497F84730002B6D
:103EA00005D13B6C002B02D1062387F84730FB7904
:103EB00003F01C03002B00F0908097F84730002B94
:103EC00012D097F84730042B07D107F11C0318468E
:103ED000FFF7ACF9034687F84730FB7943F0080356
:103EE000FB713B6B3B6412E03B6C0B331B7803F0C4
:103EF0001103002B03D0072387F8473007E0FB7935
:103F000003F00403002B02D0082387F8473097F80A
:103F10004730002B60D1FB7903F00803002B5BD006
:103F200001F056FBF8633B6C0E33FA6BD2B21A7099
:103F30003B6C0F33FA6B92B2120A92B2D2B21A7081
:103F40003B6C1033FA6B120CD2B21A703B6C11330B
:103F5000FA6B120ED2B21A703B6C0B3300221A703D
:103F60003B6C1C3300221A703B6C1D3300221A700C
:103F70003B6C1E3300221A703B6C1F3300221A70F8
:103F8000FB691846396CFFF7B3F8B863386C002149
:103F9000FFF7DCF8FB6901221A71BB6B002B1BD009
:103FA000FB695B6BFB63FB691846B96BFEF730FE80
:103FB000034687F8473097F84730002B0CD1FB6950
:103FC000BA6B013ADA60FB691846F96BFEF78CFBB5
:103FD000034687F847301EE01DE097F84730002B76
:103FE00019D13B6C0B331B7803F01003002B03D06B
:103FF000042387F847300EE0FB7903F00203002B1F
:1040000009D03B6C0B331B7803F00103002B02D06B
:10401000072387F8473097F84730002B0FD1FB79FB
:1040200003F00803002B03D0FB7943F02003FB715E
:10403000FB695A6BFB68DA61FB683A6C1A6297F8A5
:104040004730002B2BD1FB68FA799A71FB6918462F
:10405000396CFFF74DF80246FB681A613B6C1F3361
:104060001B781A063B6C1E331B781B0413433A6CF7
:104070001D321278120213433A6C1C3212781A4322
:10408000FB68DA60FB6800229A60FB6800229A6194
:10409000FA69FB681A60FB69DA88FB689A8097F80E
:1040A000473018464837BD4680BD00BF80B58AB04E
:1040B00000AFF860B9607A603B60BB68BB613B6889
:1040C00000221A60F868FFF759FE0346FB75FB7D76
:1040D000002B01D0FB7D6AE1FB689B79DBB25BB210
:1040E000002B01DA022362E1FB689B7903F00203F3
:1040F000002B01D107235AE1FB68DA687B681A4478
:10410000FB68DB689A4201D200237B6039E1FB68DF
:104110009B68C3F30803002B40F0FE80FB689B689C
:104120005B0ADAB2FB681B689B78013BDBB2134089
:10413000BB75BB7D002B3DD1FB689B68002B10D16C
:10414000FB681B697B627B6A002B13D1FB681B68D1
:1041500018460021FEF7AAFD7862FB687A6A1A61A8
:1041600008E0FB681A68FB685B6910461946FEF7B1
:104170009DFD78627B6A002B00D106E17B6A012BF2
:1041800008D1FB689B7963F07F03DAB2FB689A7110
:1041900002230CE17B6AB3F1FF3F08D1FB689B79F6
:1041A00063F07F03DAB2FB689A710123FFE0FB68DA
:1041B0007A6A5A61FB689B7903F04003002B20D098
:1041C000FB681B685978FB6803F12402FB689B6954
:1041D000084611461A46012301F04AF80346002B0F
:1041E00008D0FB689B7963F07F03DAB2FB689A71B1
:1041F0000123DCE0FB689B7923F04003DAB2FB6823
:104200009A71FB681A68FB685B6910461946FEF7ED
:1042100039FB38613B69002B08D1FB689B7963F05F
:104220007F03DAB2FB689A710223C0E0BB7D3A6972
:1042300013443B617B685B0AFB61FB69002B46D042
:10424000BA7DFB691344FA6812689278934206D9E2
:10425000FB681B689B781A46BB7DD31AFB61FB6821
:104260001B685A78FB69DBB21046B9693A6900F0FD
:10427000FFFF0346002B08D0FB689B7963F07F03A8
:10428000DAB2FB689A71012391E0FB689A693B6995
:10429000D21AFB699A4216D2FB6803F12401FB682B
:1042A0009A693B69D31A5B02BA69134408461946F6
:1042B0004FF40072FEF754F9FB689B7923F040033A
:1042C000DAB2FB689A71FB695B023B6245E0FB680E
:1042D0009A693B699A421CD0FB689A68FB68DB6864
:1042E0009A4216D2FB681B685A78FB682433104642
:1042F00019463A69012300F051FF0346002B08D00C
:10430000FB689B7963F07F03DAB2FB689A71012343
:104310004DE0FB683A699A61FB689B68C3F3080348
:10432000C3F500733B623A6A7B689A4201D97B68A5
:104330003B62FB689B68C3F308032033FA681344AD
:1043400004331846B9693A6AFEF70AF9FB689B79A3
:1043500043F04003DAB2FB689A71BA693B6A1344CE
:10436000BB61FB689A683B6A1A44FB689A603B68C9
:104370001A683B6A1A443B681A607A683B6AD31A27
:104380007B607B68002B7FF4C2AEFB689A68FB6899
:10439000DB689A4203D9FB689A68FB68DA60FB68BD
:1043A0009B7943F02003DAB2FB689A710023184628
:1043B0002837BD4680BD00BF80B586B000AF7860AD
:1043C0007868FFF7DBFC0346FB75FB7D002B40F0B4
:1043D00099807B689B7903F02003002B00F092808A
:1043E0007B689B7903F04003002B19D07B681B6826
:1043F00059787B6803F124027B689B690846114663
:104400001A46012300F034FF0346002B01D001239C
:1044100079E07B689B7923F04003DAB27B689A717C
:104420007B681A687B68DB6910461946FEF75CF901
:104430000346FB75FB7D002B64D17B681B6A3B61E7
:104440003B690B333A690B32127842F02002D2B248
:104450001A703B691C337A68D268D2B21A703B6911
:104460001D337A68D26892B2120A92B2D2B21A702E
:104470003B691E337A68D268120CD2B21A703B695B
:104480001F337A68D268120ED2B21A707B681B6929
:1044900038691946FEF75AFE01F09AF8F8603B6950
:1044A0001633FA68D2B21A703B691733FA6892B2BF
:1044B000120A92B2D2B21A703B691833FA68120C1F
:1044C000D2B21A703B691933FA68120ED2B21A705E
:1044D0003B69123300221A703B69133300221A70B1
:1044E0007B689B7923F02003DAB27B689A717B6842
:1044F0001B6801221A717B681B681846FEF71EF9BB
:104500000346FB75FB7D18461837BD4680BD00BFCE
:1045100080B584B000AF78607868FFF74DFF034640
:10452000FB73FB7B002B02D17B6800221A60FB7BB4
:1045300018461037BD4680BD90B58FB000AF78608B
:104540003A1D07F11803104619460022FFF764F9D7
:10455000034687F8373097F83730002B32D107F110
:104560000C033B637B6807F1180210461946FFF7FE
:1045700073F8034687F8373097F83730002B1AD195
:10458000FB6A002B03D1BB693A6A9A6113E0FB6AAC
:104590000B331B7803F01003002B09D0BC69BA69F8
:1045A000FB6A10461946FEF7A3FD0346A36102E02D
:1045B000052387F8373097F83730042B02D10523CD
:1045C00087F8373097F8373018463C37BD4690BDEE
:1045D00080B588B000AF786039607868FFF7CEFBAF
:1045E0000346FB75FB7D002B01D0FB7D40E17B6822
:1045F0009B79DBB25BB2002B01DA022338E17B68E6
:10460000DA683B689A4208D27B689B7903F0020320
:10461000002B02D17B68DB683B607B689B683B6159
:104620000023BB617B68BA699A603B68002B00F08D
:10463000C1807B681B689B785B02FB603B69002B39
:104640001BD03B685A1EFB68B2FBF3F23B69591E54
:10465000FB68B1FBF3F39A420FD33B695A1EFB6828
:104660005B421A407B689A607B689B683A68D31A01
:104670003B607B685B69FB612BE07B681B69FB61CE
:10468000FB69002B22D17B681B6818460021FEF7CE
:104690000DFBF861FB69012B08D17B689B7963F006
:1046A0007F03DAB27B689A710223E1E0FB69B3F120
:1046B000FF3F08D17B689B7963F07F03DAB27B68A8
:1046C0009A710123D4E07B68FA691A617B68FA6900
:1046D0005A61FB69002B6DD045E07B689B7903F044
:1046E0000203002B0CD07B681B681846F969FEF7A3
:1046F000DDFAF861FB69002B09D1FB683B6036E00D
:104700007B681B681846F969FEF7DCF8F861FB69FD
:10471000B3F1FF3F08D17B689B7963F07F03DAB286
:104720007B689A710123A3E0FB69012B05D97B68A3
:104730001B68DA69FB699A4208D87B689B7963F049
:104740007F03DAB27B689A71022391E07B68FA6991
:104750005A617B689A68FB681A447B689A603A6879
:10476000FB68D31A3B603A68FB689A42B5D87B680D
:104770009A683B681A447B689A603B68C3F30803F5
:10478000002B17D07B681B681846F969FEF77AF88A
:10479000B861BB69002B08D17B689B7963F07F030C
:1047A000DAB27B689A71022362E03B685B0ABA69FD
:1047B0001344BB617B689B68C3F30803002B45D09F
:1047C0007B689A69BB699A4240D07B689B7903F009
:1047D0004003002B20D07B681B6859787B6803F16D
:1047E00024027B689B69084611461A46012300F0A3
:1047F0003FFD0346002B08D07B689B7963F07F0365
:10480000DAB27B689A71012332E07B689B7923F0EE
:104810004003DAB27B689A717B681B685A787B68C0
:10482000243310461946BA69012300F0B7FC034649
:10483000002B08D07B689B7963F07F03DAB27B683A
:104840009A71012314E07B68BA699A617B689A685F
:104850007B68DB689A420AD97B689A687B68DA6071
:104860007B689B7943F02003DAB27B689A71FB7D09
:1048700018462037BD4680BD80B58EB000AF786049
:1048800039603A1D07F11803104619460022FEF759
:10489000C3FF034687F8373097F83730002B1DD118
:1048A00007F10C033B637B6807F1180210461946B9
:1048B000FEF7D2FE034687F8373097F83730002BE3
:1048C0000CD1FB6A002B06D007F118031846396893
:1048D000FEF736FE02E0062387F8373097F83730C8
:1048E00018463837BD4680BD80B592B000AF7860BD
:1048F00000F06EFEB8633A1D07F114031046194626
:104900000122FEF789FF034687F8473097F84730C2
:10491000002B40F0138107F10803FB627B6807F16D
:10492000140210461946FEF797FE034687F84730F3
:1049300097F84730002B02D1082387F8473097F8C3
:104940004730042B09D1FB6A0B331B7803F020039B
:10495000002B02D0062387F8473097F84730042B06
:1049600040F0EC807B6918460021FEF79FF97863E0
:10497000002387F847307B6B002B02D1072387F891
:1049800047307B6B012B02D1022387F847307B6BCA
:10499000B3F1FF3F02D1012387F8473097F8473042
:1049A000002B06D17B691846FDF756FE034687F8B3
:1049B000473097F84730002B7DD17B691846796BDB
:1049C000FDF760FF38647B6938333B63386B002147
:1049D0004FF40072FDF7E2FD386B20210B22FDF74A
:1049E000DDFD3B6B2E221A703B6B0B3310221A70CD
:1049F0003B6B1633BA6BD2B21A703B6B1733BA6B80
:104A000092B2120A92B2D2B21A703B6B1833BA6BDE
:104A1000120CD2B21A703B6B1933BA6B120ED2B2AF
:104A20001A70386B796BFEF791FB3B6B203318469D
:104A3000396B2022FDF794FD3B6B21332E221A7037
:104A4000FB69FB637B691B78032B06D17B69DA6A00
:104A5000FB6B9A4201D10023FB633B6B203318466A
:104A6000F96BFEF773FB7B699B7887F846301EE095
:104A70007A693B6C591C396453637B6901221A7152
:104A80007B691846FDF7E8FD034687F8473097F83D
:104A90004730002B00D00EE0386B00214FF400723D
:104AA000FDF77CFD97F84630013B87F8463097F8D4
:104AB0004630002BDCD197F84730002B07D107F1A7
:104AC00014031846FEF7B2FB034687F8473097F801
:104AD0004730002B05D07B691846796BFEF798F8B4
:104AE0002CE0BB6A3B633B6B0B3310221A703B6BB1
:104AF0001633BA6BD2B21A703B6B1733BA6B92B2E1
:104B0000120A92B2D2B21A703B6B1833BA6B120C03
:104B1000D2B21A703B6B1933BA6B120ED2B21A7042
:104B2000386B796BFEF712FB7B6901221A717B6986
:104B30001846FDF703FE034687F8473097F84730DD
:104B400018464837BD4680BD80B500AF4FF04020C5
:104B500008210022FDF724FB80BD00BF80B500AF17
:104B60004FF0402008210822FDF71AFB80BD00BF4E
:104B700080B584B000AF0346FB71FB790648194647
:104B8000FDF794FC07F10C0303481946FDF7C0FC40
:104B90001037BD4680BD00BF0080004080B582B0A8
:104BA00000AF0748FF21FDF781FC3B1D0448194673
:104BB000FDF7AEFC7B68DBB218460837BD4680BD0A
:104BC0000080004080B582B000AF7860FFF7E6FF5C
:104BD00003461A467B681A700837BD4680BD00BF81
:104BE00080B582B000AF0B4B32221A70FFF7D6FFB0
:104BF000FFF7D4FF0346FB71FB79FF2B04D0054B75
:104C00001B78DBB2002BF3D1FB7918460837BD4681
:104C100080BD00BFC904002080B582B000AFFFF79F
:104C20009DFF4FF040202021FDF7E6FA4FF0402095
:104C300020212022FDF7B4FA00237B600BE00B4813
:104C4000FF21FDF733FC3B4608481946FDF760FCA1
:104C50007B6801337B607B68092BF0D94FF04020E3
:104C60002021FDF70BFB0837BD4680BD00800040CA
:104C700080B582B002AF2948FCF740FE2848FCF717
:104C80003DFE40F60200FDF70FFB40F60240FDF747
:104C90000BFB41F20200FDF707FB41F20240FDF77A
:104CA00003FB4FF040203421FDF7E8FA4FF040209D
:104CB0000821FDF7A1FA4FF04020102102220A231B
:104CC000FDF7EAF84FF04020202102220A23FDF7E9
:104CD000E3F84FF04020082102220A23FDF7DCF818
:104CE0004FF04020042102220A23FDF7D5F8FCF7FB
:104CF00029FF02460B4B0093082301930A481146F3
:104D000000220023FDF768FB0748FDF7ABFBFFF728
:104D100083FF064B01221A70BD4680BD001C00F0C7
:104D2000000800F0801A060000800040CB0400203C
:104D300080B584B002AF1048FDF7A6FBFCF702FF78
:104D400003465B087B607B680C4A934201D90B4B9E
:104D50007B60FCF7F7FE02467B6800930823019313
:104D60000548114600220023FDF736FB0248FDF7F7
:104D700079FB0837BD4680BD0080004020BCBE00E6
:104D800080B400AF034B00221A70BD465DF8047B6F
:104D9000704700BFCB04002080B400AF034B1B78EA
:104DA0001846BD465DF8047B704700BFCB04002069
:104DB00080B584B000AF78603960174B64221A70F8
:104DC000FFF7ECFE0346FB73FB7BFF2B04D1124B7A
:104DD0001B78DBB2002BF3D1FB7BFE2B01D0002331
:104DE00016E07B685A1C7A601846FFF7EBFE7B687A
:104DF0005A1C7A601846FFF7E5FE3B68023B3B60B1
:104E00003B68002BEDD1FFF7C9FEFFF7C7FE01237A
:104E100018461037BD4680BDC804002080B584B058
:104E200000AF78600B46FB70FFF7DAFE0346FF2BFE
:104E300001D000232EE0FB781846FFF799FEFB789F
:104E4000FD2B26D00023FB737B685A1C7A601B78ED
:104E50001846FFF78DFE7B685A1C7A601B7818464F
:104E6000FFF786FEFB7B013BFB73FB7B002BEBD14B
:104E7000FF20FFF77DFEFF20FFF77AFEFFF78EFE93
:104E80000346BB73BB7B03F01F03052B01D000233C
:104E900000E0012318461037BD4680BD80B584B0C0
:104EA00000AF03463960FB71FFF79AFE0346FF2B04
:104EB00001D0FF2340E0FB791846FFF759FE3B681D
:104EC0001B0EDBB21846FFF753FE3B681B0CDBB230
:104ED0001846FFF74DFE3B681B0ADBB21846FFF78A
:104EE00047FE3B68DBB21846FFF742FEFF23FB7329
:104EF000FB79402B01D19523FB73FB79482B01D122
:104F00008723FB73FB7B1846FFF732FEFB794C2BA4
:104F100001D1FFF743FE0A23FB73FFF73FFE034671
:104F2000BB73BB7B5BB2002B05DAFB7B013BFB73E6
:104F3000FB7B002BF1D1BB7B18461037BD4680BDF3
:104F400080B582B000AF4C20FFF712FE0020FFF7C3
:104F50000FFE0020FFF70CFE0020FFF709FE0020E7
:104F6000FFF706FE0020FFF703FE0023FB710BE0B6
:104F7000FFF714FE03467B717B79FF2B01D07B7911
:104F8000BB71FB790133FB71FB79092BF0D9BB793C
:104F900018460837BD4680BD90B585B000AF0346C2
:104FA000FB71FB79002B01D00123D7E06D4B1B78FF
:104FB000DBB203F00203002B03D06A4B1B78DBB299
:104FC000CCE0FFF755FEFFF727FEFFF7BDFD0023FE
:104FD000BB7340200021FFF761FF0346012B40F027
:104FE000A380614B64221A7048204FF4D571FFF7FB
:104FF00055FF0346012B57D10023FB730CE0FC7BCC
:10500000FFF7CCFD03461A4607F11003234403F8CB
:10501000082CFB7B0133FB73FB7B032BEFD9BB7AA3
:10502000012B40F08180FB7AAA2B7DD177200021D3
:10503000FFF734FF0346012B08D869204FF0804169
:10504000FFF72CFF0346002B00D104E0464B1B78F2
:10505000DBB2002BEAD1444B1B78DBB2002B63D0D0
:105060007A200021FFF71AFF0346002B5CD10023B2
:10507000FB730CE0FC7BFFF791FD03461A4607F13A
:105080001003234403F8082CFB7B0133FB73FB7BE9
:10509000032BEFD93B7A03F04003002B01D006230A
:1050A00000E00223BB733FE077200021FFF7F6FE0C
:1050B0000346012B08D869200021FFF7EFFE0346C5
:1050C000012B01D8022300E00123BB73BB7B022B21
:1050D0000ED177200021FFF7E1FE0346012B0FD808
:1050E00069200021FFF7DAFE0346002B08D10CE00F
:1050F00041200021FFF7D2FE0346002B00D104E03F
:10510000194B1B78DBB2002BE0D1174B1B78DBB2BD
:10511000002B07D050204FF40071FFF7BFFE03466D
:10512000002B01D00023BB73104ABB7B1370FFF729
:1051300015FDFFF733FDBB7B002B0AD0094B1B7815
:10514000DBB223F00103DAB2064B1A70FFF7F0FD71
:1051500001E0FFF715FE034B1B78DBB2184614374E
:10516000BD4690BD00000020C8040020CA040020F5
:1051700080B483B000AF0346FB71FB79002B01D0F4
:10518000012302E0044B1B78DBB218460C37BD4606
:105190005DF8047B704700BF0000002080B584B03C
:1051A00000AFB9607A601A460346FB731346BB73BF
:1051B000FB7B002B02D1BB7B002B01D104234EE0F3
:1051C000294B1B78DBB203F00103002B01D0032332
:1051D00045E0264B1B7803F00403002B02D17B68CB
:1051E0005B027B60FFF7B0FCBB7B012B11D1512030
:1051F0007968FFF753FE0346002B26D1B8684FF4B9
:105200000071FFF7D5FD0346002B1ED00023BB73B2
:105210001BE052207968FFF741FE0346002B14D1B2
:10522000B8684FF40071FFF7C3FD0346002B00D1AF
:1052300009E0BB6803F50073BB60BB7B013BBB733C
:10524000BB7B002BECD1FFF77BFEFFF787FCFFF762
:10525000A5FCBB7B002B14BF01230023DBB2184647
:105260001037BD4680BD00BF00000020CA040020EA
:1052700080B584B000AFB9607A601A460346FB730C
:105280001346BB73FB7B002B02D1BB7B002B01D1F0
:1052900004236BE0374B1B78DBB203F00103002BD8
:1052A00001D0032362E0334B1B78DBB203F004032D
:1052B000002B01D0022359E02F4B1B7803F004038D
:1052C000002B02D17B685B027B60FFF73DFCBB7B60
:1052D000012B10D158207968FFF7E0FD0346002B21
:1052E0003AD1B868FE21FFF799FD0346002B33D071
:1052F0000023BB7330E0204B1B7803F00203002B2C
:1053000008D077200021FFF7C9FDBB7B5720194645
:10531000FFF7C4FD59207968FFF7C0FD0346002B55
:105320001AD1B868FC21FFF779FD0346002B00D1A4
:1053300009E0BB6803F50073BB60BB7B013BBB733B
:10534000BB7B002BEDD10020FD21FFF767FD03465D
:10535000002B01D10123BB73FFF700FCFFF71EFCFC
:10536000BB7B002B14BF01230023DBB21846103790
:10537000BD4680BD00000020CA04002090B58BB05F
:1053800000AF03463A60FB710B46BB713B683B6262
:10539000FB79002B01D0042314E1012387F8273087
:1053A000BB79052B28D13B6A1B78012B0ED0022B31
:1053B00012D0002B1BD1FFF7EFFC0346002B01D0CE
:1053C000FFF7DEFC002387F8273014E0FFF750FCDE
:1053D000002387F827300EE03B6A5C1CFFF7DCFCFB
:1053E0000346DBB22370002387F8273003E0042351
:1053F00087F82730E4E0E3E0744B1B78DBB203F07E
:105400000103002B01D00323DCE0FFF79DFBBB79F8
:105410000D2B00F2CE8001A252F823F017550000A8
:105420005554000007550000B3550000B355000067
:10543000B3550000B3550000B3550000B35500004C
:10544000B3550000B35500002B5500005155000026
:105450007755000049200021FFF720FD0346002B6F
:1054600050D107F10C0318461021FFF7A1FC0346A9
:10547000002B47D03B7B9B09DBB2012B0ED17B7D00
:105480009AB23B7D9BB21B029BB213449BB2013389
:10549000FB83FB8B9A023B681A602FE07B7C03F056
:1054A0000F03DAB2BB7DDB09DBB21344DAB27B7DDA
:1054B00003F00303DBB25B00DBB21344DBB2023365
:1054C00087F826303B7D9B09DBB29AB2FB7C9BB20E
:1054D0009B009BB213449AB2BB7C9BB203F00303C4
:1054E0009BB29B029BB213449BB20133FB83FA8BAA
:1054F00097F82630093B9A403B681A60002387F8EA
:10550000273059E058E03B684FF400721A800023BE
:1055100087F8273050E0FFF763FB0346FF2B03D1EA
:10552000002387F8273047E046E049200021FFF7B5
:10553000B5FC0346002B0AD1386A1021FFF738FC6E
:105540000346002B03D0002387F8273034E033E0F4
:105550004A200021FFF7A2FC0346002B0AD1386A3B
:105560001021FFF725FC0346002B03D0002387F80A
:10557000273021E020E07A200021FFF78FFC03464E
:10558000002B16D1002387F826300BE03C6A631C01
:105590003B62FFF703FB0346237097F82630013385
:1055A00087F8263097F82630032BEFD9002387F8A9
:1055B0002730042387F82730FFF7D0FAFFF7EEFAF9
:1055C00097F8273018462C37BD4690BD00000020C4
:1055D00080B400AF024B1846BD465DF8047B7047AF
:1055E000C05CC53680B582B000AF124B7B60124BF9
:1055F0003B6007E03B681A1D3A607A68111D7960CC
:1056000012681A603B680D4A9342F3D30D480E4965
:105610004FF000028842B8BF40F8042BFADB084A7A
:10562000074B1B6843F470031360FBF791FC0837CA
:10563000BD4680BD7C7200000000002034040020C4
:1056400088ED00E0380400208009002080B400AF1D
:10565000FEE700BFEFF3108062B670471C4623469A
:10566000184600BFF0B52DED048BA74C8BB0B0EE03
:10567000409AF0EE608A00F097F994F90030013317
:10568000B0EE408A04D0B0EE680A00F07DFD28B983
:10569000B0EE480A0BB0BDEC048BF0BDB0EE490A89
:1056A00000F072FD002835D1F5EE408AF1EE10FAD7
:1056B000EED1964B0890012219EE100A8DE80C00ED
:1056C00000F05CFFCDE9020118EE900A00F056FFF1
:1056D00094F900308E4F00265A1CCDE90401CDE923
:1056E00006670DD0022B0BD0684600F0A7FC0028FF
:1056F00000F0A480089B1BB101F07EFA089B0360B8
:10570000DDE9060101F028FA00EE100A0BB0BDEC4D
:10571000048BF0BDB5EE409AF1EE10FA23D1F5EE10
:10572000408AF1EE10FA5CD10123784A009319EE19
:10573000100A00230893019200F020FFCDE9020136
:1057400018EE900A00F01AFF94F9003000260027A6
:10575000CDE90401CDE90667002BC5D06C4B0022D2
:10576000CDE90623CCE7B0EE480A00F003FD05467C
:10577000002868D0B5EE408AF1EE10FA88D1B0EE7C
:10578000490A00F0F7FC002882D0B0EE680A00F069
:10579000F1FC00283FF47CAF04235C4A009319EE2F
:1057A000100A00230893019200F0E8FECDE90201FF
:1057B00018EE900A00F0E2FE94F90030002600276F
:1057C000022BCDE90401CDE9066700F09880684618
:1057D00000F034FC002800F09280089B002B8FD052
:1057E0008AE7B0EE680A00F0C5FC00283FF450AF2D
:1057F000F5EEC08AF1EE10FA7FF54AAF0123434A75
:10580000009319EE100A00230893019200F0B6FEEF
:10581000CDE9020118EE900A00F0B0FE2378CDE940
:105820000401002B43D03B490020022BCDE90601A7
:1058300037D101F0E1F921230360CEE701F0DCF973
:105840002123036056E7B0EE490A00F093FC0028DC
:1058500090D0B0EE680A00F08DFC00288AD0B0EE3F
:10586000480A00F091FC38BB284B0890012219EE41
:10587000100A8DE80C0000F081FECDE9020118EE5F
:10588000900A00F07BFE2478CDE904017CB1002071
:10589000002102460B4600F0EFFF022CCDE9060185
:1058A000C7D0684600F0CAFB002896D1C1E70022A5
:1058B0000023CDE90623F4E7144B0895032219EEE3
:1058C000100A8DE80C0000F059FECDE9020118EE37
:1058D000900A00F053FE94F90030CDE90401EBB9D1
:1058E0000D4BB5EEC09A4FF06042F1EE10FACDE9E3
:1058F000062337D494F90030022B7FF468AF01F00F
:105900007BF92223036068E7010000204872000051
:105910000000F03F0000F0FFFFFFEF471F4BB5EE28
:10592000C09A0022F1EE10FACDE90623E2D5F6EE98
:10593000007A68EEA77A17EE900A00F01FFE06467E
:105940000F4647EC106B00F07BFB3046394653ECBA
:10595000102B01F0CFF80028CCD1114B0022CDE95B
:105960000623C7E7F6EE007A68EEA77A17EE900AEC
:1059700000F004FE06460F4647EC106B00F060FB9B
:105980003046394653EC102B01F0B4F80028B1D161
:10599000044B4FF06042CDE90623ABE70000F07FF7
:1059A0000000F0FFFFFFEFC72DE9F0432DED028B64
:1059B00010EE905A83B035F0004610EE904A8DED0F
:1059C000010A14D0DDF8048028F00047B7F1FF4F3A
:1059D00007DD574803B0BDEC028BBDE8F04300F093
:1059E000EFBBB6F1FF4F09DDB7F17E5FF1D1B7EE46
:1059F000000A03B0BDEC028BBDE8F083B8F1000FE4
:105A000052DB4FF00009B6F1FF4F44D0B6F17E5F94
:105A10005DD0B4F1804F69D0B4F17C5F9DED010A97
:105A20001BD000F09FFBB7F1FF4F2AD04FB3B7F167
:105A30007E5F26D04FEAD873013B59EA03026FD04C
:105A4000B6F19A4F7CDD3B4A974200F3DB81002C94
:105A5000C0F2DE819FED380ACBE7B8F1000F4ADAD9
:105A600000F080FBB7F1FF4F01D0002FDFD1A7F18D
:105A70007E5759EA07034CD130EE400A80EE000A07
:105A8000B7E7002CBCBFF7EE007A87EE800AB8F1CA
:105A9000000FAEDAEBE7B7F17E5FA8D01FDD002C78
:105AA000D8DB00EE105AA4E7B6F1974F14DAB6F13E
:105AB0007E5F09DBF315C3F1960346FA03F202FA9F
:105AC00003F3B34200F094814FF000099EE7002CED
:105AD00018DB9DED010A8CE74FF0020993E7002CDB
